{
  "_format": "hh-sol-artifact-1",
  "contractName": "Healthcare",
  "sourceName": "contracts/Healthcare.sol",
  "abi": [
    {
      "inputs": [
        {
          "internalType": "string",
          "name": "name",
          "type": "string"
        }
      ],
      "stateMutability": "nonpayable",
      "type": "constructor"
    },
    {
      "inputs": [
        {
          "internalType": "string",
          "name": "name",
          "type": "string"
        },
        {
          "internalType": "address",
          "name": "account",
          "type": "address"
        }
      ],
      "name": "addAdmin",
      "outputs": [],
      "stateMutability": "nonpayable",
      "type": "function"
    },
    {
      "inputs": [
        {
          "internalType": "string",
          "name": "name",
          "type": "string"
        },
        {
          "internalType": "address",
          "name": "account",
          "type": "address"
        }
      ],
      "name": "addDoctor",
      "outputs": [],
      "stateMutability": "nonpayable",
      "type": "function"
    },
    {
      "inputs": [
        {
          "internalType": "string",
          "name": "name",
          "type": "string"
        },
        {
          "internalType": "uint256",
          "name": "ph",
          "type": "uint256"
        },
        {
          "internalType": "string",
          "name": "dob",
          "type": "string"
        },
        {
          "internalType": "uint256",
          "name": "age",
          "type": "uint256"
        },
        {
          "internalType": "string",
          "name": "_address",
          "type": "string"
        }
      ],
      "name": "addPatient",
      "outputs": [],
      "stateMutability": "nonpayable",
      "type": "function"
    },
    {
      "inputs": [
        {
          "internalType": "uint256",
          "name": "patientId",
          "type": "uint256"
        },
        {
          "internalType": "string",
          "name": "startdate",
          "type": "string"
        },
        {
          "internalType": "string",
          "name": "enddate",
          "type": "string"
        },
        {
          "internalType": "string",
          "name": "issue",
          "type": "string"
        },
        {
          "internalType": "string",
          "name": "medication",
          "type": "string"
        },
        {
          "internalType": "string",
          "name": "lab",
          "type": "string"
        },
        {
          "internalType": "string",
          "name": "doctor",
          "type": "string"
        }
      ],
      "name": "addRecord",
      "outputs": [],
      "stateMutability": "nonpayable",
      "type": "function"
    },
    {
      "inputs": [],
      "name": "adminCount",
      "outputs": [
        {
          "internalType": "uint256",
          "name": "",
          "type": "uint256"
        }
      ],
      "stateMutability": "view",
      "type": "function"
    },
    {
      "inputs": [
        {
          "internalType": "address",
          "name": "",
          "type": "address"
        }
      ],
      "name": "adminStatus",
      "outputs": [
        {
          "internalType": "bool",
          "name": "",
          "type": "bool"
        }
      ],
      "stateMutability": "view",
      "type": "function"
    },
    {
      "inputs": [
        {
          "internalType": "uint256",
          "name": "",
          "type": "uint256"
        }
      ],
      "name": "admins",
      "outputs": [
        {
          "internalType": "string",
          "name": "name",
          "type": "string"
        },
        {
          "internalType": "address",
          "name": "account",
          "type": "address"
        }
      ],
      "stateMutability": "view",
      "type": "function"
    },
    {
      "inputs": [
        {
          "internalType": "address",
          "name": "account",
          "type": "address"
        }
      ],
      "name": "deleteAdmin",
      "outputs": [],
      "stateMutability": "nonpayable",
      "type": "function"
    },
    {
      "inputs": [
        {
          "internalType": "address",
          "name": "account",
          "type": "address"
        }
      ],
      "name": "deleteDoctor",
      "outputs": [],
      "stateMutability": "nonpayable",
      "type": "function"
    },
    {
      "inputs": [
        {
          "internalType": "uint256",
          "name": "patientId",
          "type": "uint256"
        }
      ],
      "name": "deletePatient",
      "outputs": [],
      "stateMutability": "nonpayable",
      "type": "function"
    },
    {
      "inputs": [],
      "name": "doctorCount",
      "outputs": [
        {
          "internalType": "uint256",
          "name": "",
          "type": "uint256"
        }
      ],
      "stateMutability": "view",
      "type": "function"
    },
    {
      "inputs": [
        {
          "internalType": "address",
          "name": "",
          "type": "address"
        }
      ],
      "name": "doctorStatus",
      "outputs": [
        {
          "internalType": "bool",
          "name": "",
          "type": "bool"
        }
      ],
      "stateMutability": "view",
      "type": "function"
    },
    {
      "inputs": [
        {
          "internalType": "uint256",
          "name": "",
          "type": "uint256"
        }
      ],
      "name": "doctors",
      "outputs": [
        {
          "internalType": "string",
          "name": "name",
          "type": "string"
        },
        {
          "internalType": "address",
          "name": "account",
          "type": "address"
        }
      ],
      "stateMutability": "view",
      "type": "function"
    },
    {
      "inputs": [
        {
          "internalType": "uint256",
          "name": "patientId",
          "type": "uint256"
        },
        {
          "internalType": "string",
          "name": "name",
          "type": "string"
        },
        {
          "internalType": "uint256",
          "name": "ph",
          "type": "uint256"
        },
        {
          "internalType": "string",
          "name": "dob",
          "type": "string"
        },
        {
          "internalType": "uint256",
          "name": "age",
          "type": "uint256"
        },
        {
          "internalType": "string",
          "name": "_address",
          "type": "string"
        }
      ],
      "name": "editPatient",
      "outputs": [],
      "stateMutability": "nonpayable",
      "type": "function"
    },
    {
      "inputs": [
        {
          "internalType": "uint256",
          "name": "patientId",
          "type": "uint256"
        },
        {
          "internalType": "uint256",
          "name": "recordNumber",
          "type": "uint256"
        },
        {
          "internalType": "string",
          "name": "enddate",
          "type": "string"
        },
        {
          "internalType": "string",
          "name": "medication",
          "type": "string"
        },
        {
          "internalType": "string",
          "name": "lab",
          "type": "string"
        }
      ],
      "name": "editRecord",
      "outputs": [],
      "stateMutability": "nonpayable",
      "type": "function"
    },
    {
      "inputs": [
        {
          "internalType": "address",
          "name": "adminAddress",
          "type": "address"
        }
      ],
      "name": "getAdminNameByAddress",
      "outputs": [
        {
          "internalType": "string",
          "name": "",
          "type": "string"
        }
      ],
      "stateMutability": "view",
      "type": "function"
    },
    {
      "inputs": [
        {
          "internalType": "address",
          "name": "doctorAddress",
          "type": "address"
        }
      ],
      "name": "getDoctorNameByAddress",
      "outputs": [
        {
          "internalType": "string",
          "name": "",
          "type": "string"
        }
      ],
      "stateMutability": "view",
      "type": "function"
    },
    {
      "inputs": [],
      "name": "getPatientId",
      "outputs": [
        {
          "internalType": "uint256",
          "name": "",
          "type": "uint256"
        }
      ],
      "stateMutability": "view",
      "type": "function"
    },
    {
      "inputs": [
        {
          "internalType": "uint256",
          "name": "patientId",
          "type": "uint256"
        },
        {
          "internalType": "uint256",
          "name": "recordId",
          "type": "uint256"
        }
      ],
      "name": "getRecord",
      "outputs": [
        {
          "components": [
            {
              "internalType": "string",
              "name": "startdate",
              "type": "string"
            },
            {
              "internalType": "string",
              "name": "enddate",
              "type": "string"
            },
            {
              "internalType": "string",
              "name": "issue",
              "type": "string"
            },
            {
              "internalType": "string",
              "name": "medication",
              "type": "string"
            },
            {
              "internalType": "string",
              "name": "lab",
              "type": "string"
            },
            {
              "internalType": "string",
              "name": "doctor",
              "type": "string"
            }
          ],
          "internalType": "struct Healthcare.record",
          "name": "",
          "type": "tuple"
        }
      ],
      "stateMutability": "view",
      "type": "function"
    },
    {
      "inputs": [],
      "name": "owner",
      "outputs": [
        {
          "internalType": "string",
          "name": "name",
          "type": "string"
        },
        {
          "internalType": "address",
          "name": "account",
          "type": "address"
        }
      ],
      "stateMutability": "view",
      "type": "function"
    },
    {
      "inputs": [
        {
          "internalType": "uint256",
          "name": "",
          "type": "uint256"
        }
      ],
      "name": "patients",
      "outputs": [
        {
          "components": [
            {
              "internalType": "uint256",
              "name": "id",
              "type": "uint256"
            },
            {
              "internalType": "string",
              "name": "name",
              "type": "string"
            },
            {
              "internalType": "uint256",
              "name": "ph",
              "type": "uint256"
            },
            {
              "internalType": "string",
              "name": "dob",
              "type": "string"
            },
            {
              "internalType": "uint256",
              "name": "age",
              "type": "uint256"
            },
            {
              "internalType": "string",
              "name": "_address",
              "type": "string"
            }
          ],
          "internalType": "struct Healthcare.bio",
          "name": "biodata",
          "type": "tuple"
        },
        {
          "internalType": "uint256",
          "name": "recordCount",
          "type": "uint256"
        }
      ],
      "stateMutability": "view",
      "type": "function"
    }
  ],
  "bytecode": "0x60806040523480156200001157600080fd5b50604051620023ce380380620023ce833981016040819052620000349162000125565b604080518082019091528181523360208201526000806200005684826200028b565b50602091820151600191820180546001600160a01b0319166001600160a01b0390921691909117905560038190556000600481905590815260059091527f1471eb6eb2c5e789fc3de43f8ce62938c7d1836ec861730447e2ada8fd81017b80620000c1838262000357565b5060019182015490820180546001600160a01b0319166001600160a01b03909216919091179055336000908152600760205260409020805460ff19169091179055506103e860025562000440565b634e487b7160e01b600052604160045260246000fd5b600060208083850312156200013957600080fd5b82516001600160401b03808211156200015157600080fd5b818501915085601f8301126200016657600080fd5b8151818111156200017b576200017b6200010f565b604051601f8201601f19908116603f01168101908382118183101715620001a657620001a66200010f565b816040528281528886848701011115620001bf57600080fd5b600093505b82841015620001e35784840186015181850187015292850192620001c4565b600086848301015280965050505050505092915050565b600181811c908216806200020f57607f821691505b6020821081036200023057634e487b7160e01b600052602260045260246000fd5b50919050565b601f82111562000286576000816000526020600020601f850160051c81016020861015620002615750805b601f850160051c820191505b8181101562000282578281556001016200026d565b5050505b505050565b81516001600160401b03811115620002a757620002a76200010f565b620002bf81620002b88454620001fa565b8462000236565b602080601f831160018114620002f75760008415620002de5750858301515b600019600386901b1c1916600185901b17855562000282565b600085815260208120601f198616915b82811015620003285788860151825594840194600190910190840162000307565b5085821015620003475787850151600019600388901b60f8161c191681555b5050505050600190811b01905550565b81810362000363575050565b6200036f8254620001fa565b6001600160401b038111156200038957620003896200010f565b6200039a81620002b88454620001fa565b6000601f821160018114620003d15760008315620003b85750848201545b600019600385901b1c1916600184901b17845562000439565b600085815260209020601f19841690600086815260209020845b838110156200040d5782860154825560019586019590910190602001620003eb565b50858310156200042c5781850154600019600388901b60f8161c191681555b50505060018360011b0184555b5050505050565b611f7e80620004506000396000f3fe608060405234801561001057600080fd5b50600436106101375760003560e01c806367e57482116100b857806393119a831161007c57806393119a831461029b578063958b80c2146102bc578063a981462e146102cf578063b4ca7d71146102e2578063b912561d146102f5578063e68798791461031857600080fd5b806367e57482146102515780636efb1b841461026457806378522bc4146102775780638da5cb5b146102805780638f1787c21461028857600080fd5b806333406502116100ff57806333406502146101b85780633b1693b6146101d85780633e4a89d1146101eb57806363550cfd1461021e578063666ac1041461023157600080fd5b80630831b05f1461013c578063139f3b071461015157806314bfd6d01461016457806327e1f7df1461018e5780632b7832b3146101a1575b600080fd5b61014f61014a3660046115d6565b610320565b005b61014f61015f36600461162a565b61043c565b6101776101723660046116d7565b6104c2565b604051610185929190611736565b60405180910390f35b61014f61019c366004611760565b61056f565b6101aa60035481565b604051908152602001610185565b6101cb6101c6366004611782565b6106e0565b60405161018591906117a4565b61014f6101e6366004611760565b610ae3565b61020e6101f9366004611760565b60076020526000908152604090205460ff1681565b6040519015158152602001610185565b61014f61022c36600461185c565b610c4a565b61024461023f366004611760565b610de2565b60405161018591906118e8565b61014f61025f3660046116d7565b610f00565b6101776102723660046116d7565b610f8f565b6101aa60045481565b610177610faa565b610244610296366004611760565b610fb9565b6102ae6102a93660046116d7565b611052565b6040516101859291906118fb565b61014f6102ca3660046115d6565b611253565b61014f6102dd366004611983565b61136d565b61014f6102f0366004611adf565b6113f4565b61020e610303366004611760565b60086020526000908152604090205460ff1681565b6002546101aa565b6001546001600160a01b031633146103775760405162461bcd60e51b81526020600482015260156024820152742cb7ba9030b932903737ba103a34329037bbb732b960591b60448201526064015b60405180910390fd5b6003805490600061038783611bf5565b90915550506040805160606020601f8601819004028201810183529181018481529091829190869086908190850183828082843760009201829052509385525050506001600160a01b0384166020928301526003548152600590915260409020815181906103f59082611cae565b50602091820151600191820180546001600160a01b0319166001600160a01b03928316179055929092166000908152600790915260409020805460ff191690911790555050565b3360009081526008602052604090205460ff1661046b5760405162461bcd60e51b815260040161036e90611d68565b60008881526009602090815260408083208a8452600601909152902060018101610496878983611d96565b50600381016104a6858783611d96565b50600481016104b6838583611d96565b50505050505050505050565b6005602052600090815260409020805481906104dd90611c0e565b80601f016020809104026020016040519081016040528092919081815260200182805461050990611c0e565b80156105565780601f1061052b57610100808354040283529160200191610556565b820191906000526020600020905b81548152906001019060200180831161053957829003601f168201915b505050600190930154919250506001600160a01b031682565b6001546001600160a01b031633146105c15760405162461bcd60e51b81526020600482015260156024820152742cb7ba9030b932903737ba103a34329037bbb732b960591b604482015260640161036e565b6001600160a01b0381166000908152600760205260409020805460ff1916905560015b60035481116106dc576000818152600560205260409020600101546001600160a01b038084169116036106ca57805b600354811015610682576005600061062c836001611e51565b815260208082019290925260409081016000908120848252600590935220806106558382611e64565b5060019182015490820180546001600160a01b0319166001600160a01b0390921691909117905501610613565b5060035460009081526005602052604081209061069f828261151b565b5060010180546001600160a01b0319169055600380549060006106c183611f31565b91905055505050565b806106d481611bf5565b9150506105e4565b5050565b6107196040518060c001604052806060815260200160608152602001606081526020016060815260200160608152602001606081525090565b3360009081526008602052604090205460ff166107485760405162461bcd60e51b815260040161036e90611d68565b600083815260096020908152604080832085845260060190915290819020815160c0810190925280548290829061077e90611c0e565b80601f01602080910402602001604051908101604052809291908181526020018280546107aa90611c0e565b80156107f75780601f106107cc576101008083540402835291602001916107f7565b820191906000526020600020905b8154815290600101906020018083116107da57829003601f168201915b5050505050815260200160018201805461081090611c0e565b80601f016020809104026020016040519081016040528092919081815260200182805461083c90611c0e565b80156108895780601f1061085e57610100808354040283529160200191610889565b820191906000526020600020905b81548152906001019060200180831161086c57829003601f168201915b505050505081526020016002820180546108a290611c0e565b80601f01602080910402602001604051908101604052809291908181526020018280546108ce90611c0e565b801561091b5780601f106108f05761010080835404028352916020019161091b565b820191906000526020600020905b8154815290600101906020018083116108fe57829003601f168201915b5050505050815260200160038201805461093490611c0e565b80601f016020809104026020016040519081016040528092919081815260200182805461096090611c0e565b80156109ad5780601f10610982576101008083540402835291602001916109ad565b820191906000526020600020905b81548152906001019060200180831161099057829003601f168201915b505050505081526020016004820180546109c690611c0e565b80601f01602080910402602001604051908101604052809291908181526020018280546109f290611c0e565b8015610a3f5780601f10610a1457610100808354040283529160200191610a3f565b820191906000526020600020905b815481529060010190602001808311610a2257829003601f168201915b50505050508152602001600582018054610a5890611c0e565b80601f0160208091040260200160405190810160405280929190818152602001828054610a8490611c0e565b8015610ad15780601f10610aa657610100808354040283529160200191610ad1565b820191906000526020600020905b815481529060010190602001808311610ab457829003601f168201915b50505050508152505090505b92915050565b3360009081526007602052604090205460ff16610b385760405162461bcd60e51b81526020600482015260136024820152722cb7ba9030b932903737ba10309030b236b4b760691b604482015260640161036e565b6001600160a01b0381166000908152600860205260409020805460ff1916905560015b60045481116106dc576000818152600660205260409020600101546001600160a01b03808416911603610c3857805b600454811015610bf95760066000610ba3836001611e51565b81526020808201929092526040908101600090812084825260069093522080610bcc8382611e64565b5060019182015490820180546001600160a01b0319166001600160a01b0390921691909117905501610b8a565b50600454600090815260066020526040812090610c16828261151b565b5060010180546001600160a01b0319169055600480549060006106c183611f31565b80610c4281611bf5565b915050610b5b565b3360009081526008602052604090205460ff16610c795760405162461bcd60e51b815260040161036e90611d68565b60028054906000610c8983611bf5565b91905055506040518060c00160405280600254815260200189898080601f016020809104026020016040519081016040528093929190818152602001838380828437600092019190915250505090825250602080820189905260408051601f89018390048302810183018252888152920191908890889081908401838280828437600092019190915250505090825250602080820186905260408051601f860183900483028101830182528581529201919085908590819084018382808284376000920182905250939094525050600254815260096020908152604090912083518155908301519091506001820190610d829082611cae565b506040820151600282015560608201516003820190610da19082611cae565b506080820151600482015560a08201516005820190610dc09082611cae565b5050600254600090815260096020526040812060070155505050505050505050565b606060015b6003548111610ec5576000818152600560205260409020600101546001600160a01b03808516911603610eb35760008181526005602052604090208054610e2d90611c0e565b80601f0160208091040260200160405190810160405280929190818152602001828054610e5990611c0e565b8015610ea65780601f10610e7b57610100808354040283529160200191610ea6565b820191906000526020600020905b815481529060010190602001808311610e8957829003601f168201915b5050505050915050919050565b80610ebd81611bf5565b915050610de7565b5060405162461bcd60e51b815260206004820152600f60248201526e10591b5a5b881b9bdd08199bdd5b99608a1b604482015260640161036e565b3360009081526008602052604090205460ff16610f2f5760405162461bcd60e51b815260040161036e90611d68565b6000818152600960205260408120818155908181610f50600183018261151b565b6002820160009055600382016000610f68919061151b565b6004820160009055600582016000610f80919061151b565b50506007820160009055505050565b6006602052600090815260409020805481906104dd90611c0e565b6000805481906104dd90611c0e565b606060015b6004548111611016576000818152600660205260409020600101546001600160a01b038085169116036110045760008181526006602052604090208054610e2d90611c0e565b8061100e81611bf5565b915050610fbe565b5060405162461bcd60e51b815260206004820152601060248201526f111bd8dd1bdc881b9bdd08199bdd5b9960821b604482015260640161036e565b6009602052806000526040600020600091509050806000016040518060c00160405290816000820154815260200160018201805461108f90611c0e565b80601f01602080910402602001604051908101604052809291908181526020018280546110bb90611c0e565b80156111085780601f106110dd57610100808354040283529160200191611108565b820191906000526020600020905b8154815290600101906020018083116110eb57829003601f168201915b505050505081526020016002820154815260200160038201805461112b90611c0e565b80601f016020809104026020016040519081016040528092919081815260200182805461115790611c0e565b80156111a45780601f10611179576101008083540402835291602001916111a4565b820191906000526020600020905b81548152906001019060200180831161118757829003601f168201915b50505050508152602001600482015481526020016005820180546111c790611c0e565b80601f01602080910402602001604051908101604052809291908181526020018280546111f390611c0e565b80156112405780601f1061121557610100808354040283529160200191611240565b820191906000526020600020905b81548152906001019060200180831161122357829003601f168201915b5050509190925250505060079091015482565b3360009081526007602052604090205460ff166112a85760405162461bcd60e51b81526020600482015260136024820152722cb7ba9030b932903737ba10309030b236b4b760691b604482015260640161036e565b600480549060006112b883611bf5565b90915550506040805160606020601f8601819004028201810183529181018481529091829190869086908190850183828082843760009201829052509385525050506001600160a01b0384166020928301526004548152600690915260409020815181906113269082611cae565b50602091820151600191820180546001600160a01b0319166001600160a01b03928316179055929092166000908152600890915260409020805460ff191690911790555050565b3360009081526008602052604090205460ff1661139c5760405162461bcd60e51b815260040161036e90611d68565b6000898152600960205260409020600181016113b9898b83611d96565b5060028101879055600381016113d0868883611d96565b5060048101849055600581016113e7838583611d96565b5050505050505050505050565b3360009081526008602052604090205460ff166114235760405162461bcd60e51b815260040161036e90611d68565b6000878152600960205260408120600781018054919291829061144590611bf5565b91905081905590506040518060c001604052808981526020018881526020018781526020018681526020018581526020018481525082600601600083815260200190815260200160002060008201518160000190816114a49190611cae565b50602082015160018201906114b99082611cae565b50604082015160028201906114ce9082611cae565b50606082015160038201906114e39082611cae565b50608082015160048201906114f89082611cae565b5060a0820151600582019061150d9082611cae565b505050505050505050505050565b50805461152790611c0e565b6000825580601f10611537575050565b601f0160209004906000526020600020908101906115559190611558565b50565b5b8082111561156d5760008155600101611559565b5090565b60008083601f84011261158357600080fd5b50813567ffffffffffffffff81111561159b57600080fd5b6020830191508360208285010111156115b357600080fd5b9250929050565b80356001600160a01b03811681146115d157600080fd5b919050565b6000806000604084860312156115eb57600080fd5b833567ffffffffffffffff81111561160257600080fd5b61160e86828701611571565b90945092506116219050602085016115ba565b90509250925092565b60008060008060008060008060a0898b03121561164657600080fd5b8835975060208901359650604089013567ffffffffffffffff8082111561166c57600080fd5b6116788c838d01611571565b909850965060608b013591508082111561169157600080fd5b61169d8c838d01611571565b909650945060808b01359150808211156116b657600080fd5b506116c38b828c01611571565b999c989b5096995094979396929594505050565b6000602082840312156116e957600080fd5b5035919050565b6000815180845260005b81811015611716576020818501810151868301820152016116fa565b506000602082860101526020601f19601f83011685010191505092915050565b60408152600061174960408301856116f0565b905060018060a01b03831660208301529392505050565b60006020828403121561177257600080fd5b61177b826115ba565b9392505050565b6000806040838503121561179557600080fd5b50508035926020909101359150565b602081526000825160c060208401526117c060e08401826116f0565b90506020840151601f19808584030160408601526117de83836116f0565b925060408601519150808584030160608601526117fb83836116f0565b9250606086015191508085840301608086015261181883836116f0565b925060808601519150808584030160a086015261183583836116f0565b925060a08601519150808584030160c08601525061185382826116f0565b95945050505050565b60008060008060008060008060a0898b03121561187857600080fd5b883567ffffffffffffffff8082111561189057600080fd5b61189c8c838d01611571565b909a50985060208b0135975060408b01359150808211156118bc57600080fd5b6118c88c838d01611571565b909750955060608b0135945060808b01359150808211156116b657600080fd5b60208152600061177b60208301846116f0565b60408152825160408201526000602084015160c060608401526119226101008401826116f0565b9050604085015160808401526060850151603f19808584030160a086015261194a83836116f0565b9250608087015160c086015260a08701519150808584030160e08601525061197282826116f0565b925050508260208301529392505050565b600080600080600080600080600060c08a8c0312156119a157600080fd5b8935985060208a013567ffffffffffffffff808211156119c057600080fd5b6119cc8d838e01611571565b909a50985060408c0135975060608c01359150808211156119ec57600080fd5b6119f88d838e01611571565b909750955060808c0135945060a08c0135915080821115611a1857600080fd5b50611a258c828d01611571565b915080935050809150509295985092959850929598565b634e487b7160e01b600052604160045260246000fd5b600082601f830112611a6357600080fd5b813567ffffffffffffffff80821115611a7e57611a7e611a3c565b604051601f8301601f19908116603f01168101908282118183101715611aa657611aa6611a3c565b81604052838152866020858801011115611abf57600080fd5b836020870160208301376000602085830101528094505050505092915050565b600080600080600080600060e0888a031215611afa57600080fd5b87359650602088013567ffffffffffffffff80821115611b1957600080fd5b611b258b838c01611a52565b975060408a0135915080821115611b3b57600080fd5b611b478b838c01611a52565b965060608a0135915080821115611b5d57600080fd5b611b698b838c01611a52565b955060808a0135915080821115611b7f57600080fd5b611b8b8b838c01611a52565b945060a08a0135915080821115611ba157600080fd5b611bad8b838c01611a52565b935060c08a0135915080821115611bc357600080fd5b50611bd08a828b01611a52565b91505092959891949750929550565b634e487b7160e01b600052601160045260246000fd5b600060018201611c0757611c07611bdf565b5060010190565b600181811c90821680611c2257607f821691505b602082108103611c4257634e487b7160e01b600052602260045260246000fd5b50919050565b601f821115611c94576000816000526020600020601f850160051c81016020861015611c715750805b601f850160051c820191505b81811015611c9057828155600101611c7d565b5050505b505050565b600019600383901b1c191660019190911b1790565b815167ffffffffffffffff811115611cc857611cc8611a3c565b611cdc81611cd68454611c0e565b84611c48565b602080601f831160018114611d0b5760008415611cf95750858301515b611d038582611c99565b865550611c90565b600085815260208120601f198616915b82811015611d3a57888601518255948401946001909101908401611d1b565b5085821015611d585787850151600019600388901b60f8161c191681555b5050505050600190811b01905550565b6020808252601490820152732cb7ba9030b932903737ba1030903237b1ba37b960611b604082015260600190565b67ffffffffffffffff831115611dae57611dae611a3c565b611dc283611dbc8354611c0e565b83611c48565b6000601f841160018114611df05760008515611dde5750838201355b611de88682611c99565b845550611e4a565b600083815260209020601f19861690835b82811015611e215786850135825560209485019460019092019101611e01565b5086821015611e3e5760001960f88860031b161c19848701351681555b505060018560011b0183555b5050505050565b80820180821115610add57610add611bdf565b818103611e6f575050565b611e798254611c0e565b67ffffffffffffffff811115611e9157611e91611a3c565b611e9f81611cd68454611c0e565b6000601f821160018114611ecd5760008315611ebb5750848201545b611ec58482611c99565b855550611e4a565b600085815260209020601f19841690600086815260209020845b83811015611f075782860154825560019586019590910190602001611ee7565b5085831015611d585793015460001960f8600387901b161c19169092555050600190811b01905550565b600081611f4057611f40611bdf565b50600019019056fea2646970667358221220d311e0559c9a655cb4b55c430bdb226477ec342ec7cd88d7afdb93a13e96bc2864736f6c63430008180033",
  "linkReferences": {},
  "deployedLinkReferences": {}
}